:020000040800F2
:10000000302200209D010008BD0E0008FB040008FE
:10001000B90E0008B9030008D5120008000000005E
:10002000000000000000000000000000E90F0008D0
:10003000BD030008000000002D020008D9100008D0
:10004000B7010008B7010008B7010008B7010008B0
:10005000B7010008B7010008B7010008B7010008A0
:10006000B7010008B7010008B7010008B701000890
:10007000B7010008B7010008B7010008B701000880
:10008000B7010008B7010008B7010008B701000870
:10009000B7010008B7010008B7010008B701000860
:1000A000B7010008B7010008B7010008B701000850
:1000B000B7010008B7010008B7010008B701000840
:1000C000B7010008B7010008B7010008B701000830
:1000D000B7010008B7010008B7010008B701000820
:1000E000B7010008B7010008B7010008B701000810
:1000F000B7010008B7010008B7010008B701000800
:10010000B7010008B7010008B7010008B7010008EF
:10011000B7010008B7010008B7010008B7010008DF
:10012000B7010008B7010008B7010008B7010008CF
:10013000B7010008B7010008B7010008B7010008BF
:10014000B7010008B7010008B7010008B7010008AF
:10015000B7010008B7010008B7010008B70100089F
:10016000B7010008B7010008B7010008B70100088F
:10017000B7010008B7010008B7010008B70100087F
:10018000B7010008B7010008DFF80CD000F002F951
:10019000004800475D1800083022002006488047CC
:1001A00006480047FEE7FEE7FEE7FEE7FEE7FEE75C
:1001B000FEE7FEE7FEE7FEE70511000889010008FB
:1001C00072B634483449026841EA0201016033489A
:1001D0004FF00101016032484168016001688A887E
:1001E0004FF0100342EA03028A80D1F800C00CF1FC
:1001F000240C0CF1040CBCE8FF008CF309884FF0D0
:10020000020C8CF31488AE4662B63047EFF31080D0
:1002100072B67047EFF3108062B6704780F31088B3
:10022000704720484FF0805101607047EFF3108C09
:1002300072B61D4A126822B12DE900509047BDE800
:100240000050EFF309801EF0100F08BF20ED108B57
:1002500040F804ED20E9F01F114D4FF010082E6812
:100260003060B78827EA0807B78068682860878801
:1002700047EA080787800168B1E8F01F51F804EBEE
:100280001EF0100F08BFB1EC108B81F309888CF3BE
:100290001088704720ED00E00000FFFF780000208C
:1002A0004000002004ED00E07C0000202DE9F05F1C
:1002B0000546002092469B468846064681464024D5
:1002C0001BE0284641464746224600F053F8534675
:1002D0005A46C01A914110D311461846224600F0E2
:1002E0003AF82D1A67EB01084F46224601200021FB
:1002F00000F031F817EB00094E41201EA4F1010473
:10030000DFDC484631462A464346BDE8F09F40EAD6
:1003100001039B0703D009E008C9121F08C0042A83
:10032000FAD203E011F8013B00F8013B521EF9D26A
:100330007047D2B201E000F8012B491EFBD2704792
:100340000022F6E710B513460A4604461946FFF7A1
:10035000F0FF204610BD202A04DB203A00FA02F10B
:10036000002070479140C2F1200320FA03F31943A3
:1003700090407047202A04DB203A21FA02F0002145
:10038000704721FA02F3D040C2F1200291400843A5
:1003900019467047064C074D06E0E06840F001033F
:1003A00094E8070098471034AC42F6D3FFF7F0FE0C
:1003B000982B0008B82B000800BFFEE7704700002C
:1003C00030B5144800684FF47A72B0FBF2F1481E61
:1003D000B0F1807F00D31BE0481E4FF0E022506157
:1003E00050170F22002807DA13071D0E0A4B00F0E2
:1003F0000F04241F1D5503E013071C0E074B1C544C
:1004000000BF00204FF0E02290610720106100BF84
:1004100030BD00000000002018ED00E000E400E026
:10042000F0B50A4600210023002400BF3DE001256D
:1004300005FA01F3156805EA03049C4234D1056806
:100440004F000326BE40B543056015794E00B54008
:100450000668354305601579012D02D01579022D06
:1004600016D185684F000326BE40B5438560557997
:100470004E00B540866835438560456801268E404C
:10048000B5434560456896798E40B6B235434560C0
:10049000C5684F000326BE40B543C560D5794E0000
:1004A000B540C6683543C560491C1029BFD3F0BDAF
:1004B000F0B5002300244D07ED0E02FA05F3CE102F
:1004C00000F1200555F826504E07F70E0F26BE40C6
:1004D000B543CF1000F1200646F82750CE1000F1AA
:1004E000200555F8265045EA0304CE1000F12005FA
:1004F00045F82640F0BD4183704700BFFEE700008D
:100500001CB50121042000F0DBFC01208DF8040063
:1005100000208DF8060001208DF8070000208DF8DE
:1005200005004FF40050009069460448FFF778FF3B
:100530004FF400510148FFF7DEFF1CBD00080240E8
:1005400002465018401E904204D95018401E4B1EBF
:1005500098437047481E22EA0000FAE710B501F000
:1005600023FE26482649086001F0B8FB044654B132
:1005700000BF24A000F0D2FE214624A000F0CEFE51
:1005800000BF204610BD01F0D5FF04464CB100BFAE
:100590001CA000F0C3FE24A000F0C0FE00BF204657
:1005A000F0E702F05BF801F009FE04460CB12046CA
:1005B000E8E701F0BDFC04464CB100BF11A000F01B
:1005C000ADFE1EA000F0AAFE00BF2046DAE701F053
:1005D00025FE04464CB100BF0AA000F09FFE1CA0FF
:1005E00000F09CFE00BF2046CCE701F04DFB044626
:1005F0000CB12046C6E70020C4E7000030220020EE
:10060000D00000205B4552525D2000006F734D65A5
:100610006D53797374656D496E6974206572726F7C
:10062000722025640A0000006F735461736B496E79
:100630006974206572726F720A0000006F735175E1
:10064000657565496E6974206572726F720A000083
:100650006F735377546D72496E6974206572726F4F
:10066000720A000042684A60086042681160416096
:10067000704742684A600860426811604160704794
:1006800042684A6008604268116041607047D0E982
:1006900000121160D0E90021516000214160016029
:1006A000704701464868884201D101207047002008
:1006B000FCE701464868884201D1012070470020CC
:1006C000FCE701464868884201D1012070470020BC
:1006D000FCE7406000607047406000607047406029
:1006E0000060704770B504460D4629462068FFF744
:1006F000B9FF70BD70B504460D46002604B10DB9B2
:10070000304670BD2946204601F0D8F806463046EE
:10071000F7E770B504460D46164632462946204690
:1007200001F080F970BD70B504460D46002604B195
:100730000DB9012070BD2946204601F0A1F90646F9
:10074000012E01D00120F5E70020F3E72DE9F84F55
:1007500004460E464FF0010928480568D0F800808D
:100760000CB1102E02D80120BDE8F88F04F0030070
:1007700008B10120F8E7FFF749FD824620E0A868AC
:100780004719AC4202D8A019A84204D8BC4215D2DD
:10079000A019B84212D300BF19A000F0BFFDA8688D
:1007A0002844A2192B462146009017A000F0B6FD60
:1007B00000BF5046FFF732FD0120D5E7A846ED689F
:1007C000002DDCD13146204601F0FAF98146B9F11D
:1007D000000F04D15046FFF721FD0120C4E7074870
:1007E000006810B90548046001E0C8F80C4000201A
:1007F000E0605046FFF712FD0020B5E7CC00002076
:100800005B4552525D200000706F6F6C205B25705D
:100810002C20307825782920636F6E666C696374AC
:10082000207769746820706F6F6C205B25702C20B6
:1008300030782578290A00002DE9F05F0E469046B1
:10084000DDF8289009F104001FFA80FAB8F1000FD2
:1008500002D12E48BDE8F09F4FF6FB70814502DDC6
:100860002A480938F6E716B1B9F1000F02D1274836
:10087000401CEFE706FB0AF125480068FFF73AFF46
:10088000074617B921480A38E4E7FFF7BFFC83465B
:100890002048FFF716FF50B15846FFF7BFFC394616
:1008A0001B480068FFF73FFF18480838D2E719488F
:1008B000456800BFD5E900010860D5E9001048602F
:1008C00000206860286000BFA5F11C04E680A4F841
:1008D00008A027600120A080002020826682A081DD
:1008E000E08104F11400FFF7F7FE04F11C00FFF7AC
:1008F000F3FE04F12400FFF7EFFE5846FFF78EFCED
:100900006089C8F800000020A4E700000C0600027F
:10091000D0000020A80000202DE9F84381460C46B5
:1009200015461E4633462A462146484601F0FCFB42
:10093000074617B13846BDE8F8834FF000082B464C
:10094000224641464846009601F02AFBF3E72DE98E
:10095000FF4182B080460C461D462B4604AA214624
:10096000404601F001FC06461EB1304606B0BDE827
:10097000F081032704AB224639464046009501F03A
:100980000FFBF3E710B5FFF741FC044601F036FA20
:1009900028380A494860084600684968884208D0F3
:1009A0000748008828B92046FFF738FCFFF739FCD4
:1009B00010BD2046FFF732FC00BFF9E740000020E1
:1009C0004800002010B501F0EDFF04464CB100BF17
:1009D00006A000F0A3FC07A000F0A0FC00BF20468A
:1009E00010BDFFF7EDFB2046FAE700005B455252D1
:1009F0005D2000006F735469636B537461727420DF
:100A00006572726F720A00002DE9F04105460F46CB
:100A100000263946284600F045F8064616B130460D
:100A2000BDE8F0812868C0EBC00000EB4000194928
:100A3000096801EB8004FFF7E9FB8046A08820F0FD
:100A40000200A080A08840F00400A080E18804F1AA
:100A5000280001F077F901F0D1F928380E494860F3
:100A60000E48006888B10E48008870B908460068D2
:100A70004968884209D00A48008830B94046FFF7E3
:100A8000CDFB01F097FB0020CAE74046FFF7C6FB0D
:100A90000020C5E73C000020400000207800002036
:100AA000480000202DE9F05F07460C464FF0000893
:100AB0004FF0FF3A17B95448BDE8F09F14B95248B7
:100AC000801FF9E7206910B94F48801EF4E72068BD
:100AD00010B94D48C01EEFE7A0881F2802DD4A4824
:100AE000001FE9E7A0881F2806D1484920688842EE
:100AF00002D04548001FDFE74549464A511AE068E1
:100B0000884202D940481930D6E7E06810B94FF45E
:100B10003470E0600821E068FFF712FDE060E068F3
:100B2000B0F5987F02D23848401EC5E7FFF76EFB4C
:100B3000834612E038484068A0F1280536494868E5
:100B4000FFF7A5FD05F128013448FFF78BFD30487C
:100B5000E968FFF7E8FD0020E8602F48FFF7A9FDEE
:100B60000028E7D02D48FFF7A4FD28B1DFF898A0B2
:100B70000AF10A0A00BF41E028484068A0F12805B0
:100B800026494868FFF783FD5846FFF747FBD5F82D
:100B9000108008221E48E168FFF7BBFD06465EB9DB
:100BA000FFF734FB834605F128011C48FFF75AFD87
:100BB000DFF86CA000BF21E032464046E16801F05A
:100BC0006FFF8146C5F80090A0682862EE60E0687B
:100BD000A8600020A861E8610220A880A088E880C1
:100BE000206868614FF0FF30E8630020A864206946
:100BF000686200202865C7F800805DE75846FFF767
:100C00000DFB504658E7000007020002851C000853
:100C10003022002000C00120680000206000002079
:100C20000002000370B5044601F054F808B11848FA
:100C300070BD1848008808B11748F9E714B900F0EA
:100C4000EBF8F5E7FFF7E2FA05461449096801F108
:100C5000280001F051F811480068808820F0040055
:100C60000E49096888800D490868214601F0E6FBB5
:100C70000A480068808840F0200008490968888098
:100C80002846FFF7CBFAFFF77DFE0020D0E70000F3
:100C90000D020003480000200E0200024000002068
:100CA0002DE9F04106464FF0FF3751480068864273
:100CB00002D15048BDE8F0814F480068864202D119
:100CC0004C480D30F6E74D480068864202D349484B
:100CD0000D38EFE7FFF79AFA8046C6EBC60000EB47
:100CE00040004749096801EB8004A58805F0010030
:100CF00018B1404F0A3F00BF74E005F0100028B162
:100D00004048008810B100203E49088005F00400EA
:100D100040B104F1280000F0EFFFA08820F00400AB
:100D2000A08009E005F0080010B905F4005018B1E2
:100D300004F12800FFF7ABFC05F0600010B120467D
:100D400001F08AFEA08820F00200A080A08840F078
:100D50000100A0804FF0FF30E0630020A06401F0AC
:100D60004DF8283828494860207900F0100038B341
:100D700004F128012548FFF7B5FC20480068C0EBC6
:100D8000C00000EB40001E49096801EB80001E49CD
:100D90000860084600680661A088096888801A49CA
:100DA000E0680968C8601849606A096848620120FB
:100DB000A0804046FFF732FA01F0FCF9002079E705
:100DC0000120A08004F128011148FFF74BFC1148D5
:100DD000E168FFF7A8FC0020E0604046FFF71EFA3C
:100DE000002067E74046FFF719FA384662E700003F
:100DF0005000002014020002540000204C0000208B
:100E00003C00002048000020400000206800002036
:100E1000600000203022002070B5002420480068C7
:100E2000006920490968884201D31F4870BD1C48E9
:100E30000068007900F0040008B90020F6E7FFF729
:100E4000E5F9054616490968C88800F0C3FF04465D
:100E5000012C17D91249096801F12800FFF717FC86
:100E60000F480068808840F004000D4909688880B8
:100E70000B4A1268D1880A4A126802F1280000F071
:100E800061FF05E02846FFF7C9F907480930CDE7BB
:100E90002846FFF7C3F9FFF775FD0020C6E70000FD
:100EA000400000204C00002007020002014903C955
:100EB000704700008800002000BFFEE77047000078
:100EC00029B1064A12680243044B1A6004E0034A3F
:100ED00012688243014B1A607047000030380240AC
:100EE00029B1064A12680243044B1A6004E0034A1F
:100EF00012688243014B1A60704700004438024078
:100F0000F0B5002100220024022500260223324FE2
:100F10003F6807F00C0121B1042905D0082937D119
:100F200005E02E4F076036E02D4F076033E02A4F73
:100F30003F1F3F68C7F38056274F3F1F3F6807F0AA
:100F40003F036EB1264FB7FBF3F7DFF88CC0ACF16F
:100F5000040CDCF800C0CCF3881C07FB0CF40CE09C
:100F60001E4FB7FBF3F7DFF870C0ACF1040CDCF8F0
:100F700000C0CCF3881C07FB0CF4174F3F1F3F68E1
:100F8000C7F301477F1C7D00B4FBF5F7076002E063
:100F9000124F076000BF00BF0F4F3F6807F0F0011E
:100FA0000909104F7A5C0768D74047600A4F3F68CD
:100FB00007F4E051890A0B4F7A5C4768D740876095
:100FC000054F3F6807F46041490B064F7A5C47685C
:100FD000D740C760F0BD0000083802400024F4008C
:100FE00000127A0014000020704700000CB50020A9
:100FF000019000903448006840F480303249086025
:1010000000BF3148006800F4003000900198401C97
:101010000190009818B90198B0F5A04FF1D12A4875
:10102000006800F4003010B10120009001E00020C1
:1010300000900098012846D123484030006840F0D5
:1010400080502149403108602048006840F4404009
:101050001E4908601C48083000681B4908310860B8
:101060000846006840F4004008600846006840F404
:10107000A05008601648091F0860081F006840F06B
:101080008070091F086000BF0F48006800F0007002
:101090000028F9D040F205700E4908600A4808306F
:1010A000006820F00300084908310860084600681D
:1010B00040F00200086000BF03480830006800F0FC
:1010C0000C000828F8D10CBD003802400070004028
:1010D00008544007003C024010B50848006810B1B1
:1010E00001F04EFC08E00648D0E900305A1C40F1FF
:1010F00000000349C1E9002010BD0000A00000204D
:101100008800002010B51548006840F470001349AD
:1011100008601348006840F0010011490860002091
:101120000F49083108600E4800680E4908400C4914
:1011300008600D48091D0860081F006820F4802021
:10114000091F0860002006490C310860FFF74EFFB8
:101150004FF0006001498039086010BD88ED00E063
:1011600000380240FFFFF6FE1030002421B18289D2
:1011700042F40052828104E082894DF6FF731A40E6
:10118000828170471CB501210846FFF799FE0220B5
:101190008DF8040000208DF8060001208DF807006E
:1011A00000208DF805004FF40070009069460A4851
:1011B000FFF736F94FF48060009069460648FFF764
:1011C0002FF9072209210448FFF772F907220A21A3
:1011D0000148FFF76DF91CBD0000024002460020E7
:1011E000B1F5007F00D100BF13880B400BB1012087
:1011F00000E00020704700002DE9FF4705460E463D
:101200000024A14600BFA046B08900B100BF2C8ACF
:1012100024F44054F08804432C82AC8941F20C60E1
:101220008443B08831890843718908430443AC8101
:10123000AC8A24F44074B0890443AC826846FFF75A
:101240005FFE2048854202D01F48854202D1DDF86A
:101250000C9001E0DDF80890A88900F4004040B14E
:1012600009EBC90000EB091031684900B0FBF1F748
:1012700007E009EBC90000EB091031688900B0FBF9
:10128000F1F76420B7FBF0F004012009642101FBB1
:101290001078A88900F4004040B1322000EBC8006B
:1012A000B0FBF1F000F00700044308E0322000EB4F
:1012B00008106421B0FBF1F000F00F0004432C8112
:1012C000BDE8FF870010014000140140C1F308028F
:1012D0008280704700BFFEE71FB501211020FFF795
:1012E000FFFDFFF74FFF4FF4E13000900020ADF815
:1012F0000400ADF80600ADF808000C20ADF80A00B7
:101300000020ADF80C0069460348FFF775FF012186
:101310000148FFF72BFF1FBD001001400FB4054B24
:1013200010B503A9044A029800F018F810BC5DF843
:1013300014FB000039180008D400002002E008C89F
:10134000121F08C1002AFAD170477047002001E03F
:1013500001C1121F002AFBD1704700002DE9FF4F89
:101360008DB00F460546002606E025280BD0DDE9A6
:101370000F1290476D1C761C28780028F5D111B00B
:101380003046BDE8F08F0024A246A1460122EC4978
:1013900000E0044315F8013F203B02FA03F0084245
:1013A000F7D128782A2810D06FF02F022878A0F1E2
:1013B0003001092914D80AEB8A0102EB410144F0FB
:1013C000020400EB010A6D1CF0E701CF5FEA000A9E
:1013D00003D544F40054CAF1000A44F002046D1C21
:1013E00028782E2817D115F8010F44F004042A2874
:1013F0000ED06FF02F022878A0F1300109290AD809
:1014000009EB890102EB410100EB01096D1CF2E7D8
:1014100057F8049B6D1C28786C280FD006DC4C28EC
:1014200017D068280DD06A2814D104E0742810D091
:101430007A280FD10DE044F400140AE044F480143B
:1014400001E044F440146978814202D104F580142B
:101450006D1C6D1C2A786E2A1FD00CDC632A31D0DB
:1014600004DC002A8BD0582A11D1A3E0642A68D06A
:10147000692A0CD165E0732A2ED004DC6F2A73D060
:10148000702A04D19BE0752A6FD0782A6ED010465E
:10149000DDE90F129047761C50E1C4F30250022898
:1014A00006D0032809D0042801CF09D0066045E101
:1014B00001CFF117C0E9006140E101CF06803DE1B5
:1014C00006703BE117F8040B8DF8000000208DF842
:1014D0000100EB46012003E057F804BB4FF0FF305A
:1014E00061074FF0000102D40DE008F101018846C8
:1014F00049450FDA8045F8DB1BF808100029F4D1C4
:1015000008E008F1010188468142FADB1BF8081067
:101510000029F6D1DDE90F23AAEB08008146214618
:1015200000F036F9304400EB080604E0DDE90F1264
:101530001BF8010B9047B8F10108F7D22146484645
:10154000F7E00A21C4F302534FF0000B0891022B7D
:1015500004D001CFC117032B09D00AE0FF1D27F0EB
:101560000707F7E8020108E032E01FE020E000B2E0
:10157000C117042B01D140B2C117031E71F1000342
:1015800007DA4FF0000CD0EB0C006CEB01012D23BF
:1015900002E0230504D52B238DF82430012303E03A
:1015A000E30701D02023F7E7984658E00A2110E02E
:1015B00010210EE010204FF0000B08900CE01021DD
:1015C0004FF0000B44F004044FF00809089103E0C9
:1015D00008214FF0000B0891C4F30253022B04D0F2
:1015E00001CF0021032B06D006E0FF1D27F00707DF
:1015F000F7E8020103E080B2042B00D1C0B24FF043
:10160000000823072BD5702A07D0DDF820C08CF006
:10161000100C5CEA0B0C05D00EE040238DF8243052
:10162000012308E050EA010306D030238DF824306E
:101630008DF8252002239846DDF820C08CF0080C98
:101640005CEA0B0C0BD150EA010301D1630706D50C
:1016500030238DF824304FF00108A9F10109582AF0
:1016600004D038A20B9208AA0A920BE03AA2F9E73A
:101670005B46089AFEF71AFE0B9B9B5C0A9A521E69
:101680000A92137050EA0102F2D10A98ADEB000001
:1016900000F1200B600702D524F4803401E04FF004
:1016A0000109D94502DDA9EB0B0000E0002000EBA9
:1016B0000B0141440890AAEB010AE00306D4DDE9DE
:1016C0000F232146504600F063F806444FF000090E
:1016D00008E009A911F80900DDE90F12904709F1A6
:1016E0000109761CC145F4DBE0030CD5DDE90F23CD
:1016F0002146504600F04CF8064404E0DDE90F12A4
:1017000030209047761C0899481E08900029F5DC87
:1017100008E00A980A990078491C0A91DDE90F123D
:101720009047761CBBF10001ABF1010BF1DC2146C7
:101730005046DDE90F2300F019F806446D1C1BE646
:101740000928010030313233343536373839616297
:10175000636465660000000030313233343536375B
:101760003839414243444546000000002DE9F0412C
:10177000044600251E461746880404D405E0394671
:101780002020B0476D1C641EF9D52846BDE8F081C5
:101790002DE9F041044600251E469046C80301D5B8
:1017A000302700E02027880404D505E0414638466C
:1017B000B0476D1C641EF9D52846BDE8F0810000D5
:1017C00010B588B000240020ADF8080008A00590EE
:1017D000094801904FF40070049001A907A8FFF791
:1017E00013F9044614B1204608B010BD2046FBE7AB
:1017F0007461736B31000000312B000810B588B0A4
:1018000000240120ADF8080008A0059009480190C7
:101810004FF40070049001A907A8FFF7F5F80446FB
:1018200014B1204608B010BD2046FBE77461736B0D
:1018300032000000652B000870B504460D46E1B289
:101840000548FFF743FD00BF80210348FFF7C6FCB2
:101850000028F9D0204670BD0010014010B5FEF7F9
:101860007DFE0446FEF7ACFDFFF736FDFEF748FEB1
:101870000CB1012010BDFFF7A3FF04460CB10120FD
:10188000F8E7FFF7BBFF04460CB10120F2E7FFF7D2
:1018900099F80020EEE730B585B0044625461421BE
:1018A0006846FEF74DFD6946204600F0B9F901286B
:1018B00001D105B030BD00BFFBE700002DE9F05FAE
:1018C00081460E460024A2464F4617B90020BDE8C7
:1018D000F09FFEF79BFC8346F01C20F003067D681A
:1018E00019E06868C0F38070A0B9686820F04040D3
:1018F000B0420FD33CB1606820F04040696821F0ED
:101900004041884206DD2C46606820F04040B042ED
:1019100000D133E02D68002DE3D14CB900BF30A0D9
:10192000FFF7FCFC314630A0FFF7F8FC00BF48E0B1
:10193000606820F04040801B08281ED904F1080090
:101940008519686820F0804068606068801B0838EE
:10195000696860F31D0169602C602146384600F01B
:1019600051F98046B8F1000F01D17D6001E0C8F85F
:101970000050606866F31D00606000BF606820F082
:1019800000406060606820F0804000F1804060604E
:1019900004F1080A2048016806F1080008441E49BD
:1019A0000860084600681D490968884203D91A483A
:1019B00000681A4908601A480068401C1849086005
:1019C00000BF7868406820F04040B0F5806F02DAD0
:1019D0003846FFF760FF5846FEF720FC504676E792
:1019E0005B4552525D200000746865726527732064
:1019F0006E6F7420656E6F7567682077686F6C65B1
:101A000020746F20616C6C6F63202578204279749C
:101A10006573210A00000000C4000020C8000020F7
:101A2000BC0000202DE9F04780460F4614460025F3
:101A3000B8F1000F05D027B1042C02D3601E20405E
:101A400010B10020BDE8F0873819A0F1040949461B
:101A50004046FFF733FF054675B1601E2844611EFE
:101A600020EA0106B54200D107E0A6EB050A4AF0DC
:101A7000004A46F804AC354600BF2846E2E70000BD
:101A80002DE9F05F81460E464FF0010A4D4605B143
:101A900016B90120BDE8F09F56F8048C08F000400C
:101AA00018B128F00048A6EB08062868B04203D811
:101AB00068680830B0420AD200BF38A0FFF72EFC99
:101AC000314638A0FFF72AFC00BF0020E2E7FEF70E
:101AD0009DFB8346A6F108046068C0F3807088B15E
:101AE0002868A04211D02068296888420AD321685A
:101AF00068680830814205D82846216800F082F8DD
:101B0000A04202D04FF0000A43E0606820F080401D
:101B10006060606820F040400830274909688842CA
:101B200008D8606820F04040083023490968081A46
:101B30002149086000E02468206828B120684068D6
:101B4000C0F380700028F6D00BE061687868083038
:101B50000144606861F31D0060606868B84200D1AC
:101B60006C602146284600F04DF8071E04D07868C6
:101B7000C0F380700028E8D02146284600F042F8E3
:101B8000071E00D03C600D480068401C0B490860EF
:101B900000BF5846FEF742FB50467BE75B4552527A
:101BA0005D20000030782578206F7574206F6620E6
:101BB00072616E6765210A00C4000020C000002029
:101BC0002DE9F04105460E462F460FB1182E02D8DA
:101BD0000020BDE8F08131462846FEF7B1FBBE602B
:101BE00005F110043C607C60606820F0804060601B
:101BF00000202060A6F11800616860F31D0161609B
:101C00000120E6E702465068884201D10020704773
:101C1000486820F0404301F108001844F7E700004D
:101C200070B504460025002223460BB9012070BD83
:101C300009B90120FBE75A6809E05068C0F38070D9
:101C400020B1506820F04040083005441268002A56
:101C5000F3D19868A84201D20120E8E74D60986866
:101C60000860D1E90006801B886004480068C860ED
:101C70000348006808610020D9E70000BC0000208C
:101C8000C000002000BFFEE710B586B018216846EE
:101C9000FEF756FB0A4800904FF4A060039009A09D
:101CA00004901F20ADF8040069460948FEF7ACFE19
:101CB000044614B1204606B010BD0020FBE700002A
:101CC000851C000849646C65436F726530303000D4
:101CD0005000002000BFEFF30580704710B50024CE
:101CE0000348044A111AFEF731FD0446204610BD90
:101CF0003022002000C0012070B5044600BFD4E9A6
:101D000000010860D4E90010486000206060206095
:101D100000BFA4F12805E988084A126802EBC10057
:101D2000FEF7BFFC40B1A9794FF00040C84004491C
:101D3000096881430248016070BD00002400002052
:101D40002800002070B504460D460E49096801EBD5
:101D5000C500FEF7A6FC38B14FF00040E8400A4944
:101D600009680843084908600648006800EBC50197
:101D7000086842686260206042681460446000BF86
:101D800000BF70BD240000202800002070B5002492
:101D900000254FF4807529460C480068FEF7AAFC20
:101DA0000B4908600846006800B970BD0020044671
:101DB00008E00749096801EBC4004060006000BF0B
:101DC000601C0446202CF4D300BFEEE7D0000020B6
:101DD00024000020014600200022074B1B6803EB73
:101DE000C1035A6801E0401C5268034B1B6803EBB7
:101DF000C1039342F7D17047240000200021074817
:101E0000006848B105480068B0FA80F104480068ED
:101E100000EBC100406870470020FCE7280000206C
:101E2000240000202DE9F04704460E461746984648
:101E30004FF00009CA4606F0030020B1012810D077
:101E4000032828D119E0B4F80CA0A089401CE1882F
:101E5000884202D10020A08102E0A089401CA0811C
:101E600023E0A08918B9E088401EA08102E0A08983
:101E7000401EA081B4F80CA017E0B4F80EA0E089D1
:101E8000401CE188884202D10020E08102E0E08924
:101E9000401CE08109E000BF1BA0FFF73FFA1CA037
:101EA000FFF73CFA00BFBDE8F08700BF218920683A
:101EB0000AFB010506F0040040B106F0010010B96C
:101EC000286838601DE0386828601AE006F00100D4
:101ED00058B92089284450F8049C4A462946384677
:101EE000FEF715FAC8F800900BE039462846D8F8F6
:101EF0000020FEF70CFA20892844D8F8001040F89A
:101F0000041C00BFCFE700005B4552525D2000007B
:101F1000696E76616C6964207175657565206F7096
:101F200065726174652074797065210A0000000093
:101F300070B54FF4DC7116480068FEF7DBFB1549FD
:101F400008600846006808B9134870BD4FF4DC719A
:101F500010480068FEF7F4F91048FEF7BDFB0024B6
:101F600012E004EB440000EBC4000A49096801EBED
:101F700080056C8105F11C06084908683146FEF7AA
:101F800078FB00BF601C84B20A2CEADB0020DCE78F
:101F9000D0000020A400002001060002A8000020BC
:101FA0002DE9FF4F83B081460E469846DDF840A0EC
:101FB0000020019006F00105FEF728F9029009EBD8
:101FC000490000EBC9005449096801EB8004A0886E
:101FD00010B95248019099E006F0010048B92089F3
:101FE000001FD8F80010814203D24C4815300190F0
:101FF0008CE006F0010048B12089001FD8F80010DD
:10200000814203D945480B3001907FE004F1100074
:1020100030F8150090BBBAF1000F09D106F00100AD
:1020200010B93E48133001E03C480C3001906DE09F
:102030003B48008818B13948001F019066E03948D4
:10204000076804F1140101EBC50052464FF400513A
:1020500000F04CFC0298FEF7E1F8FEF793FCFEF767
:10206000D5F80290387900F0400090B1B88820F09F
:102070004000B8802948C01E019047E0FFE704F106
:10208000100030F81500401E81B204F1100020F855
:102090001510434631462046059AFFF7C3FE0DB999
:1020A000012200E0002204F1140101EBC200FEF75E
:1020B00008FBC0B90DB9012100E0002104F11400B2
:1020C00000EBC1004068A0F1280B4FF400515846C6
:1020D00000F032FC0298FEF7A1F8FEF753FC002056
:1020E00007B0BDE8F08F0DB9012100E0002104F137
:1020F000100030F81100401C81B20DB9012200E03F
:10210000002204F1100020F8121000BF0298FEF720
:1021100085F80198E4E70000A40000200A06000208
:1021200048000020400000202DE9F04105460E4601
:1021300014461F460A2D02D30A48BDE8F08106B1B5
:1021400014B90848401CF8E7206810B90548801CFD
:10215000F3E72FB1FFF7BEFD10B102480A30ECE7FC
:102160000020EAE70E0600022DE9F04104460D4684
:1021700016461F460A2C02D30A48BDE8F08115B95D
:102180000848001DF9E7306810B90648401DF4E71B
:102190002FB1FFF79FFD10B10248401FEDE700206F
:1021A000EBE700000E0600021020014908607047AE
:1021B0004C00002010B5FEF734F810BD70B5134880
:1021C000FEF78DFA4FF4A07111480068FEF792FAFD
:1021D000104908600846006808B90F4870BD00241F
:1021E00010E00C48006800EB0415EC80002028800B
:1021F00005F10806054908683146FEF741FA00BFB7
:10220000601C84B2142CECDB0020E7E7B000002057
:10221000D0000020B8000020000700022DE9F8439C
:1022200000201D4908604FF4C07841461B480068F3
:10223000FEF760FA044614B91948BDE8F883414630
:102240002046FEF77DF81748046017480460002018
:10225000E08025461834012605E0E6802C602546FE
:10226000701C86B21834102EF7DB082000230F4AAA
:10227000102100901846FEF7DFFA074617B108480C
:10228000001DDAE700F05CF8074617B10448401D6E
:10229000D3E70020D1E7000038000020D000002064
:1022A0000703000230000020340000202C00002032
:1022B00010B500220021C36883600F4B19680AE043
:1022C0008B688468A34200D907E083688C681B1B75
:1022D00083600A4609680029F2D100BF016019B184
:1022E0008B6884681B1B8B6012B9034B186000E07D
:1022F00010600223037110BD380000200EB50820C5
:10230000009000BF4FF0FF336A4601A90B480068F8
:10231000FEF702FB0446002CF4D100980828F1D106
:1023200001980028EED0FEF7C1FD0546DDE9011059
:102330008847FEF7BBFD401BE4E700002C000020AF
:1023400010B586B018216846FDF7FAFF08480090DE
:102350004FF48050039007A004900020ADF80400D3
:1023600069460748FEF750FB0446204606B010BDFC
:10237000FD2200085377745F5461736B0000000006
:10238000540000201CB51D48046832E01B49206839
:102390000860606900902069019000230822694666
:1023A00017480068FEF7D3FA6079A0B9204600F01C
:1023B00029F8E0884FF6E071884203DAE0881030AF
:1023C000E08014E0E088C11700EB11710911A0EB67
:1023D0000111E1800BE06079012803D12046FFF76D
:1023E00067FF04E06079022801D1012020710348D1
:1023F000046814B1A0680028C8D01CBD38000020B3
:102400002C0000200349096801600249086000218E
:10241000017170473400002010B50748006848B1CA
:10242000054800688068401E03490968886008B94B
:10243000FFF7A8FF002010BD380000202DE9F0476D
:102440000446884608F01F074FEA581907B101E013
:10245000A9F10109A06B00F0784040EA0900A063EF
:1024600025488088074407F01F07A06B67F3DF60EB
:10247000A0632148006800EBC7067068B04205D130
:1024800004F130013046FEF72DF933E07068A0F119
:10249000300500BFA86B20F07840A16B21F0784197
:1024A00088420CD8A06B20F07840A96B21F07841CD
:1024B000401AA16B01F078410843A0630CE0A86BBF
:1024C00020F07840A16B21F07841401AA96B01F00F
:1024D00078410843A86306E0686BA0F1300505F178
:1024E0003000B042D6D100BF04F1300105F1300018
:1024F000FEF7F8F8BDE8F0877000002070B50546DB
:10250000C5EBC50000EB40000649096801EB8004FB
:102510006169206A88470020034908802069FEF726
:10252000BFFB70BD3C0000204800002072B600BF19
:10253000FEE7000070B540480068401C542100FBD5
:1025400001F631463D480068FEF7D4F83C49086082
:102550000846006808B93B4870BD314638480068F5
:10256000FDF7EEFE3848FEF7B4F83848FEF7B1F84C
:102570003748FEF7AEF8002420E00120C4EBC40188
:1025800001EB41012E4A126802EB81018880C4EB05
:10259000C40000EB40002A49096801EB8000046197
:1025A000C4EBC40000EB4000254A126802EB800037
:1025B00000F128012548FEF795F8641C0F2CDCD9A2
:1025C00024480021016041601B480068C0EBC00046
:1025D00000EB40001A49096801EB80001D490860C2
:1025E0000846006804611120096888802020194984
:1025F0000968C880FFF7CAFB4FF4807631460F4860
:102600000068FEF777F805460DB90E48A4E7314695
:102610002846FDF795FE1048056000200E49888089
:10262000002404E02846FEF754F8641C0835202CEA
:10263000F8D3002090E700004C000020D0000020DC
:102640003C00002000020003580000206000002031
:1026500068000020400000207000002010B54FF4FA
:10266000AB710648FDF76CFE0A2004494870044827
:102670000449086000200449086010BDD80000200B
:10268000692700087C000020800000202DE9F0412F
:10269000002734498988481CC11700EBD1614911D2
:1026A000A0EB41112F4A918010460068114689889D
:1026B00000EBC1056868A84201D1BDE8F0816868F7
:1026C000A0F1300443E0A688A06B20F0784018B158
:1026D000A06B401EA0633EE004F13000FDF7D7FF81
:1026E00006F0080058B1A08820F00800A08004F18E
:1026F0002800FDF7CCFF0020A061E06117E006F4A0
:10270000806020B1A08820F48060A0800FE006F4F3
:10271000005040B104F12800FDF7B9FFA08820F473
:102720000050A08003E0A08820F02000A08006F0E8
:10273000020048B9A08840F00400A080E18804F1BC
:102740002800FFF7FFFA01276868A0F1300404F1C0
:102750003000A842B7D100BF0FB1FEF713F900BF98
:10276000ABE700007000002010B53B480068C0686F
:102770000068B0F1CC3F0DD000BF38A0FEF7CEFD11
:1027800035480068026934480068416A35A0FEF7A0
:10279000C5FD00BF3048406800682F494968C968D6
:1027A00088420BD92C484068C0682B494968896821
:1027B000084429494968096888421BD200BF27A0FC
:1027C000FEF7ACFD24484068026923484068416A2E
:1027D0002EA0FEF7A3FD00BF00BF20A0FEF79EFDC8
:1027E0001D484068C2681C484068016830A0FEF778
:1027F00095FD00BF18484068008A81B239480278C8
:10280000801C20F81210144A5268516A821E1378F4
:10281000163202EB43102022FDF779FD00213148EA
:102820000278163000EB4210C1772E480078401C29
:10283000C0B22C4908700A2806D10020087008464A
:10284000407840F0800048702748006810B1264862
:102850000068804710BD0000400000205B455252D8
:102860005D20000043555252454E54207461736BF5
:102870002049443A2025733A256420737461636BC0
:10288000206F766572666C6F77210A004849474869
:10289000455354207461736B2049443A2025733AA0
:1028A0002564205350206572726F72210A00000067
:1028B00048494748455354207461736B20537461F1
:1028C000636B506F696E7465723A2030782578209A
:1028D000546F704F66537461636B3A20307825787B
:1028E0000A000000D8000020800000202DE9F041FF
:1028F00007460E4615460F48046804F12800FFF706
:10290000FBF9A08820F00400A08004F12808A0882A
:102910003043A08041463846FDF7E4FE681C38B1DC
:10292000A08840F04000A08029462046FFF786FDA1
:10293000BDE8F0814000002070B504460D4604F16A
:102940002800FDF7A4FEA088A843A080207900F00D
:10295000400030B1204600F07FF8A08820F0400011
:10296000A080207900F0020040B9A08840F0040067
:10297000A080E18804F12800FFF7E4F970BD0000B1
:1029800010B50748D0E900305A1C40F10000044956
:10299000C1E90020FFF77AFEFFF73EFD10BD000001
:1029A0008800002070B52548006828B100BF234882
:1029B0000068B0F57A7F01D2214870BD1F480068D9
:1029C0004FF47A71B0FBF1F01E49086000211E4AF5
:1029D00011605160194800684FF47A72B0FBF2F14F
:1029E000481EB0F1807F01D301201BE0481E4FF04C
:1029F000E022506150170F22002807DA1407260E34
:102A0000124C00F00F052D1F665503E01407250E2C
:102A10000F4C255400BF00204FF0E02290610720AA
:102A2000106100200346012B02D10548801CC4E739
:102A30000120084908600020BFE7000000000020D6
:102A400000040002980000208800002018ED00E03B
:102A500000E400E0A00000202DE9F0410446A06B56
:102A6000C70E0E48006800EBC706606BB0420ED080
:102A7000606BA0F13005A86B20F07840A16B21F0CD
:102A800078410844A96B01F078410843A86304F138
:102A90003000FDF7FCFDBDE8F08100007000002073
:102AA0002DE9F04106460F4615464FF0CA32394629
:102AB0002846FDF73EFC4FF0CC302860E819A0F125
:102AC00048044FF0043020604FF0053060604FF054
:102AD0000630A0604FF00730E0604FF00830206112
:102AE0004FF0093060614FF01030A0614FF01130AD
:102AF000E06100202062C01E6062A6624FF00130DB
:102B0000E062400020634FF0033060634FF012300A
:102B1000A0630548E063054820644FF0807060645E
:102B20002046BDE8F08100002D250008FD240008A6
:102B3000012408E02146641C03A0FEF7EFFB4FF4DC
:102B40007A70FEF76FF8F5E75468697320697320AF
:102B50007461736B312C636F756E742069732025FB
:102B6000640D0A00012408E02146641C03A0FEF75E
:102B7000D5FB4FF4FA60FEF755F8F5E75468697332
:102B8000206973207461736B322C636F756E7420CF
:102B900069732025640D0A00B82B0008000000208E
:102BA000D80000003C130008902C0008D80000203A
:102BB000582100004C130008007A030A00000000AE
:102BC00000000000010203040607080900000000DD
:102BD00001020304010203040607080900000000C3
:102BE00000000000000000000000000000000000E5
:102BF00000000000000000000000000000000000D5
:102C000000000000000000000000000000000000C4
:102C100000000000000000000000000000000000B4
:102C200000000000000000000000000000000000A4
:102C30000000000000000000000000000000000094
:102C40000000000000000000000000000000000084
:102C50000000000000000000000000000000000074
:102C60000000000000000000000000000000000064
:102C70000000000000000000000000000000000054
:102C80000000000000000000000000000000000044
:040000050800018965
:00000001FF
